{
  "contractName": "PriceConsumer",
  "abi": [
    {
      "inputs": [],
      "payable": false,
      "stateMutability": "nonpayable",
      "type": "constructor"
    },
    {
      "constant": true,
      "inputs": [],
      "name": "getLatestPrice",
      "outputs": [
        {
          "internalType": "int256",
          "name": "",
          "type": "int256"
        }
      ],
      "payable": false,
      "stateMutability": "view",
      "type": "function"
    },
    {
      "constant": true,
      "inputs": [],
      "name": "getLatestPriceTimestamp",
      "outputs": [
        {
          "internalType": "uint256",
          "name": "",
          "type": "uint256"
        }
      ],
      "payable": false,
      "stateMutability": "view",
      "type": "function"
    }
  ],
  "bytecode": "0x608060405234801561001057600080fd5b50738468b2bdce073a157e560aa4d9ccf6db1db985076000806101000a81548173ffffffffffffffffffffffffffffffffffffffff021916908373ffffffffffffffffffffffffffffffffffffffff1602179055506101fe806100746000396000f3fe608060405234801561001057600080fd5b50600436106100365760003560e01c80630d0d2b011461003b5780638e15f47314610059575b600080fd5b610043610077565b6040518082815260200191505060405180910390f35b610061610120565b6040518082815260200191505060405180910390f35b60008060009054906101000a900473ffffffffffffffffffffffffffffffffffffffff1673ffffffffffffffffffffffffffffffffffffffff16638205bf6a6040518163ffffffff1660e01b815260040160206040518083038186803b1580156100e057600080fd5b505afa1580156100f4573d6000803e3d6000fd5b505050506040513d602081101561010a57600080fd5b8101908080519060200190929190505050905090565b60008060009054906101000a900473ffffffffffffffffffffffffffffffffffffffff1673ffffffffffffffffffffffffffffffffffffffff166350d25bcd6040518163ffffffff1660e01b815260040160206040518083038186803b15801561018957600080fd5b505afa15801561019d573d6000803e3d6000fd5b505050506040513d60208110156101b357600080fd5b810190808051906020019092919050505090509056fea265627a7a7231582094cfaf2cd02cd64efab99c8bd31339651512963acfbf4ba6d36f306d555a154164736f6c63430005100032",
  "source": "pragma solidity >=0.4.21 <0.6.0;\n\n//import \"@chainlink/contracts/src/v0.5/interfaces/AggregatorInterface.sol\";\nimport \"@chainlink/contracts/src/v0.5/interfaces/AggregatorInterface.sol\";\n\ncontract PriceConsumer {\n\n    AggregatorInterface internal priceFeed;\n    /**\n     * Network: Ropsten\n     * Aggregator: ETH/USD\n     * Address: 0x8468b2bDCE073A157E560AA4D9CcF6dB1DB98507\n     */\n    constructor() public {\n        priceFeed = AggregatorInterface(0x8468b2bDCE073A157E560AA4D9CcF6dB1DB98507);\n    }\n     /**\n     * Returns the latest price\n     */\n    function getLatestPrice() public view returns (int256) {\n        return priceFeed.latestAnswer();\n    }\n\n    /**\n     * Returns the timestamp of the latest price update\n     */\n    function getLatestPriceTimestamp() public view returns (uint256) {\n        return priceFeed.latestTimestamp();\n    }\n}\n",
  "sourcePath": "/home/usman/Documents/trading-bot/contracts/Pricefeed.sol",
  "compiler": {
    "name": "solc",
    "version": "0.5.16+commit.9c3226ce.Emscripten.clang"
  },
  "schemaVersion": "3.2.2",
  "updatedAt": "2020-07-27T16:42:16.075Z",
  "devdoc": {
    "methods": {}
  },
  "userdoc": {
    "methods": {
      "constructor": "Network: Ropsten Aggregator: ETH/USD Address: 0x8468b2bDCE073A157E560AA4D9CcF6dB1DB98507",
      "getLatestPrice()": {
        "notice": "Returns the latest price"
      },
      "getLatestPriceTimestamp()": {
        "notice": "Returns the timestamp of the latest price update"
      }
    }
  }
}